:100000000C942A000C9447000C9447000C94470071
:100010000C94DD200C94AA200C949B1F0C94CE1FF2
:100020000C9447000C9447000C94281C0C94F51B6E
:100030000C9447000C940F220C9447000C9447003A
:100040000C94AB060C9447000C9447000C944700AA
:100050000C94470011241FBECFE5D8E0DEBFCDBF12
:1000600011E0A0E6B0E0E8EFF2E602C005900D92E4
:10007000A831B107D9F711E0A8E1B1E001C01D92A4
:10008000A333B107E1F70E9442220C947A310C9419
:100090000000EF92FF920F931F937B018C0120E0F1
:1000A00030E040E05FE40E94F50388238CF0C80153
:1000B000B70120E030E040E05FE40E94C1010E940F
:1000C00055049B01AC01205030404040504806C0D0
:1000D000C801B7010E9455049B01AC01B901CA01D6
:1000E0001F910F91FF90EF900895A0E0B0E0EBE733
:1000F000F0E00C941231DC012B01FA019C9192305A
:1001000008F439C1EB018881823008F433C194309E
:1001100069F4843009F02FC111969C91119789815F
:10012000981709F428C1AEEFB0E025C1843009F476
:1001300021C18230A9F4923009F01DC19A01AD01AC
:1001400088E0EA010990AE01E90109929E0181501F
:10015000C1F7E201898111969C918923818308C1AD
:10016000923009F407C112962D903C901397EB0141
:100170008A819B811496AD90BD90CD90DC901797AD
:10018000EC80FD800E811F819101281B390BB90184
:1001900037FF04C066277727621B730B6032710537
:1001A0000CF061C0121613066CF537014801062EDB
:1001B00004C096948794779467940A94D2F721E0C8
:1001C00030E040E050E004C0220F331F441F551FB1
:1001D0006A95D2F721503040404050402E213F21B7
:1001E00040235123211531054105510521F021E01E
:1001F00030E040E050E079018A01E628F72808293C
:1002000019293CC0232BD1F1260E371E350146019A
:10021000062E04C096948794779467940A94D2F734
:1002200021E030E040E050E004C0220F331F441FC3
:10023000551F6A95D2F721503040404050402A2146
:100240003B214C215D21211531054105510521F04E
:1002500021E030E040E050E059016A01A628B728CB
:10026000C828D9280BC0821593052CF01C01AA249C
:10027000BB24650103C0EE24FF24870111969C91E5
:10028000D20111968C91981709F445C0992339F041
:10029000A80197012A193B094C095D0906C0A6016E
:1002A00095012E193F09400B510B57FD08C01182D3
:1002B0003382228224833583468357831DC081E0A5
:1002C00081833382228288279927DC01821B930B4A
:1002D000A40BB50B84839583A683B7830DC0220F2F
:1002E000331F441F551F24833583468357838281E0
:1002F000938101979383828324813581468157813D
:10030000DA01C9010197A109B1098F5F9F4FAF4F72
:10031000BF4328F30BC0918333822282EA0CFB1C7B
:100320000C1D1D1DE482F5820683178383E0808304
:10033000248135814681578157FF1AC0C901AA27F8
:1003400097FDA095BA2F81709070A070B0705695EF
:10035000479537952795822B932BA42BB52B848318
:100360009583A683B7838281938101969383828349
:10037000DF0101C0D201CD01CDB7DEB7E2E10C94BF
:100380002E31A0E2B0E0E7ECF1E00C941E3169837D
:100390007A838B839C832D833E834F835887E9E048
:1003A000EE2EF12CEC0EFD1ECE010196B7010E943F
:1003B0007E058E010F5E1F4FCE010596B8010E948B
:1003C0007E058A8991E089278A8BC701B801AE0131
:1003D000475E5F4F0E9475000E94A904A096E6E068
:1003E0000C943A31A0E2B0E0E8EFF1E00C941E3159
:1003F00069837A838B839C832D833E834F835887C5
:10040000F9E0EF2EF12CEC0EFD1ECE010196B701A6
:100410000E947E058E010F5E1F4FCE010596B8012A
:100420000E947E05C701B801AE01475E5F4F0E9482
:1004300075000E94A904A096E6E00C943A31A0E26F
:10044000B0E0E5E2F2E00C94123169837A838B83A9
:100450009C832D833E834F835887CE010196BE0136
:10046000675F7F4F0E947E05CE010596BE016F5EDD
:100470007F4F0E947E059985923088F0898982306D
:10048000C8F0943019F4823051F404C0843029F457
:10049000923081F48EEF90E0C6C0923049F420E0B3
:1004A0009A858A89981321E02A87CE010996BBC0D4
:1004B000823049F420E09A858A89981321E02A8BBA
:1004C000CE014196B0C02D843E844F8458886D88FB
:1004D0007E888F88988CEE24FF248701AA24BB2471
:1004E000650140E050E060E070E0E0E0F0E0C10174
:1004F00081709070892BE9F0E60CF71C081D191D1E
:100500009A01AB012A0D3B1D4C1D5D1D80E090E062
:10051000A0E0B0E0E614F7040805190520F481E036
:1005200090E0A0E0B0E0BA01A901480F591F6A1F8E
:100530007B1FAA0CBB1CCC1CDD1C97FE08C081E0F5
:1005400090E0A0E0B0E0A82AB92ACA2ADB2A3196B6
:10055000E032F10549F0660C771C881C991C569412
:10056000479437942794C3CFFA85EA892B893C892D
:100570008B859C85280F391F2E5F3F4F17C0CA01FE
:1005800081709070892B61F016950795F794E79428
:1005900080E090E0A0E0B0E8E82AF92A0A2B1B2BC3
:1005A00076956795579547952F5F3F4F77FDE7CF36
:1005B0000CC0440F551F661F771F17FD4160EE0CDE
:1005C000FF1C001F111F21503040403090E05907A0
:1005D00090E0690790E4790760F32B8F3C8FDB0193
:1005E000CA018F779070A070B07080349105A1051A
:1005F000B10561F447FD0AC0E114F10401051105DC
:1006000029F0405C5F4F6F4F7F4F40781A8EFE1786
:1006100011F081E08A8F4D8F5E8F6F8F78A383E01A
:10062000898FCE0149960E94A904A096E2E10C941C
:100630002E31A8E1B0E0EFE1F3E00C941A316983C8
:100640007A838B839C832D833E834F835887B9E0C5
:10065000EB2EF12CEC0EFD1ECE010196B7010E948F
:100660007E058E010F5E1F4FCE010596B8010E94D8
:100670007E052985223008F47EC03989323010F495
:10068000B8017CC08A859A8989278A87243011F02D
:10069000223031F4231709F06EC06EEF70E06EC0A7
:1006A000343039F41D861E861F86188A1C861B86E8
:1006B00004C0323021F484E08987B7015FC02B8504
:1006C0003C858B899C89281B390B3C872B87ED84C3
:1006D000FE840F851889AD88BE88CF88D88CEA142F
:1006E000FB040C051D0540F4EE0CFF1C001F111F40
:1006F000215030403C872B8720E030E040E050E044
:1007000080E090E0A0E0B0E460E070E0EA14FB0478
:100710000C051D0540F0282B392B4A2B5B2BEA18C2
:10072000FB080C091D09B695A79597958795EE0CC2
:10073000FF1C001F111F6F5F7F4F6F31710531F775
:10074000DA01C9018F779070A070B0708034910584
:10075000A105B10561F427FD0AC0E114F10401050A
:10076000110529F0205C3F4F4F4F5F4F20782D87B8
:100770003E874F87588BBE01675F7F4FCB010E943A
:10078000A9046896EAE00C943631A8E1B0E0EBECFD
:10079000F3E00C941E3169837A838B839C832D83D1
:1007A0003E834F83588789E0E82EF12CEC0EFD1E26
:1007B000CE010196B7010E947E058E010F5E1F4F8C
:1007C000CE010596B8010E947E058985823040F0F1
:1007D0008989823028F0C701B8010E94F60501C05E
:1007E0008FEF6896E6E00C943A31A8E1B0E0EBEFC9
:1007F000F3E00C941E3169837A838B839C832D8371
:100800003E834F83588789E0E82EF12CEC0EFD1EC5
:10081000CE010196B7010E947E058E010F5E1F4F2B
:10082000CE010596B8010E947E058985823040F090
:100830008989823028F0C701B8010E94F60501C0FD
:100840008FEF6896E6E00C943A31A8E1B0E0EBE275
:10085000F4E00C941E3169837A838B839C832D830F
:100860003E834F83588789E0E82EF12CEC0EFD1E65
:10087000CE010196B7010E947E058E010F5E1F4FCB
:10088000CE010596B8010E947E058985823040F030
:100890008989823028F0C701B8010E94F60501C09D
:1008A00081E06896E6E00C943A31ACE0B0E0EBE52C
:1008B000F4E00C94223169837A838B839C83CE018C
:1008C0000196BE016B5F7F4F0E947E058D81823055
:1008D00061F1823050F1843021F48E81882351F10E
:1008E0002EC02F81388537FD20C06E812F31310514
:1008F0001CF06623F9F023C08EE190E0821B930B7D
:1009000029853A854B855C8504C056954795379572
:1009100027958A95D2F76623B1F05095409530958A
:1009200021953F4F4F4F5F4F0EC020E030E040E039
:1009300050E009C02FEF3FEF4FEF5FE704C020E02A
:1009400030E040E050E8B901CA012C96E2E00C9496
:100950003E31DF92EF92FF920F931F93FC01E480F0
:10096000F58006811781D1808081823048F480E053
:1009700090E0A0E1B0E0E82AF92A0A2B1B2BA5C0E1
:10098000843009F49FC0823021F4EE24FF248701D3
:1009900005C0E114F1040105110519F4E0E0F0E0EF
:1009A00096C0628173819FEF623879070CF05BC05B
:1009B00022E83FEF261B370B2A3131052CF020E0CF
:1009C00030E040E050E02AC0B801A701022E04C088
:1009D00076956795579547950A94D2F781E090E010
:1009E000A0E0B0E004C0880F991FAA1FBB1F2A9582
:1009F000D2F70197A109B1098E219F21A023B1232C
:100A00000097A105B10521F081E090E0A0E0B0E001
:100A10009A01AB01282B392B4A2B5B2BDA01C90138
:100A20008F779070A070B07080349105A105B105EA
:100A300039F427FF09C0205C3F4F4F4F5F4F04C080
:100A4000215C3F4F4F4F5F4FE0E0F0E02030A0E0EF
:100A50003A07A0E04A07A0E45A0710F0E1E0F0E00E
:100A600079018A0127C06038710564F5FB01E158FE
:100A7000FF4FD801C7018F779070A070B07080349D
:100A80009105A105B10539F4E7FE0DC080E490E0C1
:100A9000A0E0B0E004C08FE390E0A0E0B0E0E80E9A
:100AA000F91E0A1F1B1F17FF05C016950795F7941F
:100AB000E794319687E016950795F794E7948A9521
:100AC000D1F705C0EE24FF248701EFEFF0E06E2F91
:100AD000679566276795902F9F77D794DD24D794E5
:100AE0008E2F8695492F462B582F5D29B701CA01B5
:100AF0001F910F91FF90EF90DF900895FC01DB01B3
:100B0000408151812281622F6F7770E0221F22275E
:100B1000221F9381892F880F822B282F30E0991F65
:100B20009927991F11969C93119721153105A9F5C5
:100B3000411551056105710511F482E037C082E865
:100B40009FEF13969C938E9312979A01AB0167E0E7
:100B5000220F331F441F551F6A95D1F783E08C93F2
:100B60000DC0220F331F441F551F12968D919C916B
:100B70001397019713969C938E931297203080E0E1
:100B8000380780E0480780E4580758F314962D93FF
:100B90003D934D935C93179708952F3F310579F45A
:100BA000411551056105710519F484E08C93089590
:100BB00064FF03C081E08C9312C01C9210C02F57B9
:100BC000304013963C932E93129783E08C9387E0EA
:100BD000440F551F661F771F8A95D1F770641496CE
:100BE0004D935D936D937C93179708951F93DC014C
:100BF000FB019C91923008F447C08081823008F458
:100C000043C0943051F411961C91843099F5818140
:100C1000682F70E0611B71093FC0843021F0923071
:100C200031F48230B9F18181882389F12DC0119688
:100C30001C9111978230F1F081811817D9F4129626
:100C40002D913C911397828193818217930794F0A1
:100C500028173907BCF014968D919D910D90BC9189
:100C6000A02D2481358146815781281739074A07ED
:100C70005B0718F4112341F00AC082179307A407F9
:100C8000B50740F4112319F061E070E005C06FEF83
:100C90007FEF02C060E070E0CB011F910895DF9309
:100CA000CF93CDB7DEB7A7E2B0E0E7E2F0E0808116
:100CB00080648C93A6E2B0E0E6E2F0E08081886890
:100CC0008C93A6E2B0E0E6E2F0E0808186608C934F
:100CD000CF91DF910895DF93CF930F92CDB7DEB719
:100CE0008983A7E2B0E0E7E2F0E08081982F987F67
:100CF00089818770892B8C930F90CF91DF91089514
:100D0000DF93CF93CDB7DEB7A6E2B0E0E6E2F0E046
:100D1000808180648C93CF91DF910895DF93CF938E
:100D2000CDB7DEB7E4E2F0E080819181CF91DF9131
:100D30000895DF93CF9300D0CDB7DEB79A83898330
:100D400089819A8190931901809318010F900F90D7
:100D5000CF91DF9108951F920F920FB60F92112439
:100D60002F933F934F935F936F937F938F939F93B3
:100D7000AF93BF93EF93FF93DF93CF93CDB7DEB7DE
:100D80008091180190911901009729F0E0911801C4
:100D9000F09119010995CF91DF91FF91EF91BF91EA
:100DA000AF919F918F917F916F915F914F913F9103
:100DB0002F910F900FBE0F901F901895DF93CF9338
:100DC00000D0CDB7DEB789836A830E94292180EAEB
:100DD0000E9439218A810E94392189810E9439210A
:100DE0000E9485210F900F90CF91DF910895DF939E
:100DF000CF9300D00F92CDB7DEB789837B836A8310
:100E00000E94292180EA0E94392189810E9439218A
:100E10000E94292181EA0E9439210E946121EA81F0
:100E2000FB8180830E9485210F900F900F90CF91BE
:100E3000DF910895DF93CF93CDB7DEB7A2970FB6BA
:100E4000F894DEBF0FBECDBF1C828FEF8B8384E092
:100E50008E8385E08F8386E0888787E0898782E0BC
:100E60008A8783E08B8784E08C8785E08D87CE013D
:100E70000E969F8F8E8FE8E0F1E0F9A3E8A3F0E1F2
:100E8000FAA3E8A1F9A1008088A199A1019699A3EC
:100E900088A3EE8DFF8D00828E8D9F8D01969F8F92
:100EA0008E8F9AA191509AA3EAA1EE2351F71A824C
:100EB0006BC08A81282F30E0CE010696FC01E20F3C
:100EC000F31F908184E0692F40E00E94411819824D
:100ED00043C08981282F30E0CE010A96FC01E20F41
:100EE000F31F90819E012B5F3F4F81E0692FA90185
:100EF0000E9452198D81882361F58981282F30E065
:100F00008A81482F50E0220F331F220F331FCE015A
:100F10000196820F931F840F951FFC013D968081DF
:100F20008B8311C08981282F30E0CE010A96FC0105
:100F3000E20FF31F90819E012B5F3F4F81E0692FED
:100F4000A9010E9452198D81882361F381E08C836D
:100F500007C089818F5F89838981843008F4B9CF84
:100F60008A81282F30E0CE010696FC01E20FF31FA4
:100F7000908184E0692F41E00E9441188C8181308A
:100F800039F08A818F5F8A838A81843008F491CF17
:100F90008B81A2960FB6F894DEBF0FBECDBFCF9166
:100FA000DF9108950F931F93DF93CF93CDB7DEB7F3
:100FB000C859D0400FB6F894DEBF0FBECDBFFE01BA
:100FC000EB56FF4F80E090E0A0E2B2E48083918393
:100FD000A283B3838E010F561F4FFE01EB56FF4FC6
:100FE000608171818281938120E030E04AEF54E496
:100FF0000E941F02DC01CB01F80180839183A28350
:10100000B383FE01EF56FF4F60817181828193812E
:1010100020E030E040E85FE30E942504882344F4A8
:10102000FE01E157FF4F81E090E09183808364C02F
:10103000FE01EF56FF4F608171818281938120E034
:101040003FEF4FE757E40E94C50318160CF043C06A
:10105000FE01EB56FF4F608171818281938120E018
:1010600030E040E251E40E941F02DC01CB018E011E
:1010700001571F4FBC01CD010E944900DC01CB018B
:10108000F801918380831FC0FE01E357FF4F88EC76
:1010900090E091838083FE01E357FF4F808191812F
:1010A0000197F1F7FE01E357FF4F91838083DE0143
:1010B000A157BF4FFE01E157FF4F808191810197FA
:1010C00011969C938E93FE01E157FF4F8081918191
:1010D0000097D1F627C08E0101571F4FFE01EF5632
:1010E000FF4F60817181828193810E944900DC0100
:1010F000CB01F80191838083DE01A557BF4FFE012C
:10110000E157FF4F808191818D939C93FE01E557BC
:10111000FF4F808191810197F1F7FE01E557FF4F65
:101120009183808383E064E041E00E94411883E082
:1011300065E041E00E94411883E066E040E00E94E3
:10114000411883E067E040E00E94411882E060E0DF
:1011500040E00E94411882E061E040E00E944118B6
:1011600082E062E041E00E944118FE01E957FF4F32
:1011700080E090E0A0E8BFE380839183A283B38303
:101180008E010D571F4FFE01E957FF4F608171819E
:10119000828193812BEA3AEA4AE250E40E941F02DC
:1011A000DC01CB01F80180839183A283B383FE012C
:1011B000ED57FF4F608171818281938120E030E0A3
:1011C00040E85FE30E942504882334F4FE01EE57D3
:1011D000FF4F81E08083E0C0FE01ED57FF4F60814B
:1011E00071818281938120E030E04FE753E40E94D7
:1011F000C50318160CF0C0C0FE01E957FF4F60810F
:1012000071818281938120E030E04AE754E40E94BA
:101210001903DC01CB01FE01E258FF4F808391836B
:10122000A283B3838E0106581F4FFE01E258FF4F81
:10123000608171818281938120E030E04AEF54E443
:101240000E941F02DC01CB01F80180839183A283FD
:10125000B383FE01E658FF4F6081718182819381E3
:1012600020E030E040E85FE30E942504882344F456
:10127000FE01E858FF4F81E090E09183808364C0D5
:10128000FE01E658FF4F608171818281938120E0E9
:101290003FEF4FE757E40E94C50318160CF043C018
:1012A000FE01E258FF4F608171818281938120E0CD
:1012B00030E040E251E40E941F02DC01CB018E01CC
:1012C00008581F4FBC01CD010E944900DC01CB0131
:1012D000F801918380831FC0FE01EA58FF4F88EC1C
:1012E00090E091838083FE01EA58FF4F80819181D5
:1012F0000197F1F7FE01EA58FF4F91838083DE01E9
:10130000A858BF4FFE01E858FF4F80819181019797
:1013100011969C938E93FE01E858FF4F8081918136
:101320000097D1F64BC08E0108581F4FFE01E658BA
:10133000FF4F60817181828193810E944900DC01AD
:10134000CB01F80191838083DE01AC58BF4FFE01D1
:10135000E858FF4F8081918111969C938E93FE01F6
:10136000EC58FF4F808191810197F1F7FE01EC5815
:10137000FF4F9183808322C08E010E571F4FFE01C5
:10138000ED57FF4F60817181828193810E944900F6
:10139000DC01CB01F8018083DE01AD58BF4FFE01B7
:1013A000EE57FF4F80818C93FE01ED58FF4F8081F7
:1013B0008A95F1F7FE01ED58FF4F808382E062E0ED
:1013C00040E00E944118FE01E159FF4F80E090E0AB
:1013D000A0EAB0E480839183A283B3838E01055990
:1013E0001F4FFE01E159FF4F60817181828193811E
:1013F00020E030E04AEF54E40E941F02DC01CB0100
:10140000F80180839183A283B383FE01E559FF4FE6
:10141000608171818281938120E030E040E85FE368
:101420000E942504882344F4FE01E759FF4F81E020
:1014300090E09183808364C0FE01E559FF4F608195
:1014400071818281938120E03FEF4FE757E40E9452
:10145000C50318160CF043C0FE01E159FF4F60812F
:1014600071818281938120E030E040E251E40E946A
:101470001F02DC01CB018E0107591F4FBC01CD01BA
:101480000E944900DC01CB01F801918380831FC0D9
:10149000FE01E959FF4F88EC90E091838083FE01C3
:1014A000E959FF4F808191810197F1F7FE01E959D8
:1014B000FF4F91838083DE01A759BF4FFE01E7599B
:1014C000FF4F80819181019711969C938E93FE012D
:1014D000E759FF4F808191810097D1F627C08E0197
:1014E00007591F4FFE01E559FF4F608171818281CD
:1014F00093810E944900DC01CB01F8019183808334
:10150000DE01AB59BF4FFE01E759FF4F808191814A
:101510008D939C93FE01EB59FF4F80819181019740
:10152000F1F7FE01EB59FF4F9183808383E064E084
:1015300041E00E94411883E065E041E00E944118CB
:1015400083E066E040E00E94411883E067E040E00D
:101550000E94411882E060E040E00E94411882E071
:1015600061E040E00E94411882E062E041E00E94B8
:101570004118FE01EF59FF4F80E090E0A0E8BFE383
:1015800080839183A283B3838E01035A1F4FFE0190
:10159000EF59FF4F60817181828193812BEA3AEA92
:1015A0004AE250E40E941F02DC01CB01F801808373
:1015B0009183A283B383FE01E35AFF4F608171815F
:1015C0008281938120E030E040E85FE30E942504BF
:1015D000882334F4FE01E45AFF4F81E08083E0C0A9
:1015E000FE01E35AFF4F608171818281938120E087
:1015F00030E04FE753E40E94C50318160CF0C0C05A
:10160000FE01EF59FF4F608171818281938120E05B
:1016100030E04AE754E40E941903DC01CB01FE01EB
:10162000E85AFF4F80839183A283B3838E010C5AC3
:101630001F4FFE01E85AFF4F6081718182819381C3
:1016400020E030E04AEF54E40E941F02DC01CB01AD
:10165000F80180839183A283B383FE01EC5AFF4F8C
:10166000608171818281938120E030E040E85FE316
:101670000E942504882344F4FE01EE5AFF4F81E0C6
:1016800090E09183808364C0FE01EC5AFF4F60813B
:1016900071818281938120E03FEF4FE757E40E9400
:1016A000C50318160CF043C0FE01E85AFF4F6081D5
:1016B00071818281938120E030E040E251E40E9418
:1016C0001F02DC01CB018E010E5A1F4FBC01CD0160
:1016D0000E944900DC01CB01F801918380831FC087
:1016E000FE01E05BFF4F88EC90E091838083FE0178
:1016F000E05BFF4F808191810197F1F7FE01E05B94
:10170000FF4F91838083DE01AE5ABF4FFE01EE5A38
:10171000FF4F80819181019711969C938E93FE01DA
:10172000EE5AFF4F808191810097D1F64BC08E0118
:101730000E5A1F4FFE01EC5AFF4F6081718182816A
:1017400093810E944900DC01CB01F80191838083E1
:10175000DE01A25BBF4FFE01EE5AFF4F80819181F7
:1017600011969C938E93FE01E25BFF4F80819181E5
:101770000197F1F7FE01E25BFF4F9183808322C066
:101780008E01045A1F4FFE01E35AFF4F60817181A1
:10179000828193810E944900DC01CB01F8018083A2
:1017A000DE01A35BBF4FFE01E45AFF4F80818C93A3
:1017B000FE01E35BFF4F80818A95F1F7FE01E35B59
:1017C000FF4F808382E062E040E00E944118FE010A
:1017D000E75BFF4F80E090E0A0E8BFE38083918368
:1017E000A283B3838E010B5B1F4FFE01E75BFF4FAC
:1017F000608171818281938120E030E04AEF54E47E
:101800000E941F02DC01CB01F80180839183A28337
:10181000B383FE01EB5BFF4F608171818281938115
:1018200020E030E040E85FE30E942504882344F490
:10183000FE01ED5BFF4F81E090E09183808364C007
:10184000FE01EB5BFF4F608171818281938120E01B
:101850003FEF4FE757E40E94C50318160CF043C052
:10186000FE01E75BFF4F608171818281938120E0FF
:1018700030E040E251E40E941F02DC01CB018E0106
:101880000D5B1F4FBC01CD010E944900DC01CB0163
:10189000F801918380831FC0FE01EF5BFF4F88EC4E
:1018A00090E091838083FE01EF5BFF4F8081918107
:1018B0000197F1F7FE01EF5BFF4F91838083DE011B
:1018C000AD5BBF4FFE01ED5BFF4F808191810197C2
:1018D00011969C938E93FE01ED5BFF4F8081918169
:1018E0000097D1F624C08E010D5B1F4FFE01EB5B0C
:1018F000FF4F60817181828193810E944900DC01E8
:10190000CB01F80191838083FE01ED5BFF4F808165
:101910009181FE01FF9691838083FE01FF96808175
:1019200091810197F1F7FE01FF969183808383E017
:1019300064E041E00E94411883E065E041E00E94DC
:10194000411883E066E040E00E94411883E067E0D0
:1019500040E00E94411882E060E040E00E944118AF
:1019600082E061E040E00E94411882E062E041E0F4
:101970000E94411880E090E0A0E8BFE38BAF9CAFED
:10198000ADAFBEAF6BAD7CAD8DAD9EAD2BEA3AEA8F
:101990004AE250E40E941F02DC01CB018FAB98AFFA
:1019A000A9AFBAAF6FA978AD89AD9AAD20E030E0AC
:1019B00040E85FE30E94250488231CF481E08EAB9D
:1019C00091C06FA978AD89AD9AAD20E030E04FE7C6
:1019D00053E40E94C50318160CF07BC06BAD7CADC0
:1019E0008DAD9EAD20E030E04AE754E40E9419033B
:1019F000DC01CB018AAB9BABACABBDAB6AA97BA9CD
:101A00008CA99DA920E030E04AEF54E40E941F0217
:101A1000DC01CB018EA79FA7A8ABB9AB6EA57FA5B4
:101A200088A999A920E030E040E85FE30E942504FE
:101A300088232CF481E090E09DA78CA73FC06EA581
:101A40007FA588A999A920E03FEF4FE757E40E94BE
:101A5000C50318164CF56AA97BA98CA99DA920E09D
:101A600030E040E251E40E941F02DC01CB01BC01E6
:101A7000CD010E944900DC01CB019DA78CA70FC0BE
:101A800088EC90E09BA78AA78AA59BA50197F1F710
:101A90009BA78AA78CA59DA501979DA78CA78CA520
:101AA0009DA5009769F724C06EA57FA588A999A96F
:101AB0000E944900DC01CB019DA78CA78CA59DA5A8
:101AC00099A788A788A599A50197F1F799A788A74D
:101AD0000FC06FA978AD89AD9AAD0E944900DC01B5
:101AE000CB018EAB8EA98FA38FA18A95F1F78FA31F
:101AF00082E062E040E00E94411883E064E040E060
:101B00000E94411883E065E041E00E94411883E0B3
:101B100066E040E00E94411883E067E040E00E94F8
:101B2000411882E060E040E00E94411882E061E0FC
:101B300040E00E94411882E062E041E00E944118CA
:101B400080E090E0A0E8BFE38BA39CA3ADA3BEA37D
:101B50006BA17CA18DA19EA12BEA3AEA4AE250E456
:101B60000E941F02DC01CB018F8F98A3A9A3BAA307
:101B70006F8D78A189A19AA120E030E040E85FE371
:101B80000E94250488231CF481E08E8F91C06F8D04
:101B900078A189A19AA120E030E04FE753E40E94A8
:101BA000C50318160CF07BC06BA17CA18DA19EA172
:101BB00020E030E04AE754E40E941903DC01CB0145
:101BC0008A8F9B8FAC8FBD8F6A8D7B8D8C8D9D8D09
:101BD00020E030E04AEF54E40E941F02DC01CB0118
:101BE0008E8B9F8BA88FB98F6E897F89888D998DF9
:101BF00020E030E040E85FE30E94250488232CF4D5
:101C000081E090E09D8B8C8B3FC06E897F89888DB1
:101C1000998D20E03FEF4FE757E40E94C503181667
:101C20004CF56A8D7B8D8C8D9D8D20E030E040E2FF
:101C300051E40E941F02DC01CB01BC01CD010E94D6
:101C40004900DC01CB019D8B8C8B0FC088EC90E0B0
:101C50009B8B8A8B8A899B890197F1F79B8B8A8B57
:101C60008C899D8901979D8B8C8B8C899D89009790
:101C700069F724C06E897F89888D998D0E944900FB
:101C8000DC01CB019D8B8C8B8C899D89998B888BFA
:101C9000888999890197F1F7998B888B0FC06F8D8F
:101CA00078A189A19AA10E944900DC01CB018E8F05
:101CB0008E8D8F878F858A95F1F78F8782E062E01E
:101CC00040E00E94411882E00E94A21288E20E9435
:101CD000A2128CE00E94A21286E00E94A21281E071
:101CE0000E94A21280E090E0A0E0B0E48B879C8785
:101CF000AD87BE876B857C858D859E8520E030E035
:101D00004AEF54E40E941F02DC01CB018F839887C5
:101D1000A987BA876F81788589859A8520E030E028
:101D200040E85FE30E94250488232CF481E090E0E2
:101D30009E838D833FC06F81788589859A8520E059
:101D40003FEF4FE757E40E94C50318164CF56B852B
:101D50007C858D859E8520E030E040E251E40E9444
:101D60001F02DC01CB01BC01CD010E944900DC0156
:101D7000CB019E838D830FC088EC90E09C838B8386
:101D80008B819C810197F1F79C838B838D819E8150
:101D900001979E838D838D819E81009769F714C082
:101DA0006F81788589859A850E944900DC01CB0185
:101DB0009E838D838D819E819A83898389819A8177
:101DC0000197F1F79A838983C856DF4F0FB6F894CD
:101DD000DEBF0FBECDBFCF91DF911F910F91089550
:101DE0000F931F93DF93CF93CDB7DEB7C755D04086
:101DF0000FB6F894DEBF0FBECDBFFE01E95AFF4F0C
:101E00008083FE01E95AFF4F808182958F70982F61
:101E1000917083E064E0492F0E944118FE01E95A65
:101E2000FF4F8081829586958770982F917083E00F
:101E300065E0492F0E944118FE01E95AFF4F808159
:101E40008295869586958370982F917083E066E0E1
:101E5000492F0E944118FE01E95AFF4F8081982FB7
:101E6000991F9927991F83E067E0492F0E94411825
:101E700082E060E041E00E94411882E061E040E0E1
:101E80000E94411882E062E041E00E944118FE0198
:101E9000ED5AFF4F80E090E0A0E8BFE3808391839C
:101EA000A283B3838E01015B1F4FFE01ED5AFF4FEA
:101EB00060817181828193812BEA3AEA4AE250E49F
:101EC0000E941F02DC01CB01F80180839183A28371
:101ED000B383FE01E15BFF4F608171818281938159
:101EE00020E030E040E85FE30E942504882334F4DA
:101EF000FE01E25BFF4F81E08083E0C0FE01E15B19
:101F0000FF4F608171818281938120E030E04FE753
:101F100053E40E94C50318160CF0C0C0FE01ED5A30
:101F2000FF4F608171818281938120E030E04AE738
:101F300054E40E941903DC01CB01FE01E65BFF4F74
:101F400080839183A283B3838E010A5B1F4FFE01BE
:101F5000E65BFF4F608171818281938120E030E0F8
:101F60004AEF54E40E941F02DC01CB01F801808398
:101F70009183A283B383FE01EA5BFF4F608171818D
:101F80008281938120E030E040E85FE30E942504F5
:101F9000882344F4FE01EC5BFF4F81E090E09183E5
:101FA000808364C0FE01EA5BFF4F608171818281A2
:101FB000938120E03FEF4FE757E40E94C5031816D6
:101FC0000CF043C0FE01E65BFF4F608171818281AE
:101FD000938120E030E040E251E40E941F02DC01E6
:101FE000CB018E010C5B1F4FBC01CD010E9449004B
:101FF000DC01CB01F801918380831FC0FE01EE5B01
:10200000FF4F88EC90E091838083FE01EE5BFF4FF1
:10201000808191810197F1F7FE01EE5BFF4F918383
:102020008083DE01AC5BBF4FFE01EC5BFF4F808124
:102030009181019711969C938E93FE01EC5BFF4F6B
:10204000808191810097D1F642C08E010C5B1F4FB9
:10205000FE01EA5BFF4F60817181828193810E9462
:102060004900DC01CB01F80191838083DE01A05C93
:10207000BF4FFE01EC5BFF4F8081918111969C93D5
:102080008E93FE01E05CFF4F808191810197F1F713
:10209000FE01E05CFF4F9183808319C08E01025BDB
:1020A0001F4FFE01E15BFF4F60817181828193814F
:1020B0000E944900DC01CB01F8018083FE01E25B54
:1020C000FF4F80818FAF8FAD8A95F1F78FAF82E0A0
:1020D00062E040E00E94411880E090E0A8E4B3E4B0
:1020E0008BAF9CAFADAFBEAF6BAD7CAD8DAD9EADDC
:1020F0002BEA3AEA4AE250E40E941F02DC01CB01DB
:102100008FAB98AFA9AFBAAF6FA978AD89AD9AADD3
:1021100020E030E040E85FE30E94250488231CF4BF
:1021200081E08EAB91C06FA978AD89AD9AAD20E00A
:1021300030E04FE753E40E94C50318160CF07BC053
:102140006BAD7CAD8DAD9EAD20E030E04AE754E450
:102150000E941903DC01CB018AAB9BABACABBDABDE
:102160006AA97BA98CA99DA920E030E04AEF54E43C
:102170000E941F02DC01CB018EA79FA7A8ABB9ABC1
:102180006EA57FA588A999A920E030E040E85FE32B
:102190000E94250488232CF481E090E09DA78CA761
:1021A0003FC06EA57FA588A999A920E03FEF4FE722
:1021B00057E40E94C50318164CF56AA97BA98CA99F
:1021C0009DA920E030E040E251E40E941F02DC01C2
:1021D000CB01BC01CD010E944900DC01CB019DA7D0
:1021E0008CA70FC088EC90E09BA78AA78AA59BA527
:1021F0000197F1F79BA78AA78CA59DA501979DA79D
:102200008CA78CA59DA5009769F724C06EA57FA516
:1022100088A999A90E944900DC01CB019DA78CA740
:102220008CA59DA599A788A788A599A50197F1F7E1
:1022300099A788A70FC06FA978AD89AD9AAD0E9404
:102240004900DC01CB018EAB8EA98FA38FA18A95AB
:10225000F1F78FA3FE01E95AFF4F8081982F91700B
:1022600083E064E0492F0E944118FE01E95AFF4FC4
:1022700080818695982F917083E065E0492F0E94B8
:102280004118FE01E95AFF4F808186958695982F67
:10229000917083E066E0492F0E944118FE01E95ADF
:1022A000FF4F8081869586958695982F917083E063
:1022B00067E0492F0E94411882E062E041E00E94FD
:1022C000411880E090E0A0E8BFE38BA39CA3ADA3FE
:1022D000BEA36BA17CA18DA19EA12BEA3AEA4AE2A2
:1022E00050E40E941F02DC01CB018F8F98A3A9A3A9
:1022F000BAA36F8D78A189A19AA120E030E040E8CF
:102300005FE30E94250488231CF481E08E8F91C036
:102310006F8D78A189A19AA120E030E04FE753E4C6
:102320000E94C50318160CF07BC06BA17CA18DA187
:102330009EA120E030E04AE754E40E941903DC014A
:10234000CB018A8F9B8FAC8FBD8F6A8D7B8D8C8DDF
:102350009D8D20E030E04AEF54E40E941F02DC0132
:10236000CB018E8B9F8BA88FB98F6E897F89888DCB
:10237000998D20E030E040E85FE30E942504882347
:102380002CF481E090E09D8B8C8B3FC06E897F891F
:10239000888D998D20E03FEF4FE757E40E94C503F9
:1023A00018164CF56A8D7B8D8C8D9D8D20E030E06C
:1023B00040E251E40E941F02DC01CB01BC01CD01CF
:1023C0000E944900DC01CB019D8B8C8B0FC088ECF7
:1023D00090E09B8B8A8B8A899B890197F1F79B8B75
:1023E0008A8B8C899D8901979D8B8C8B8C899D898B
:1023F000009769F724C06E897F89888D998D0E9426
:102400004900DC01CB019D8B8C8B8C899D89998B3C
:10241000888B888999890197F1F7998B888B0FC0F0
:102420006F8D78A189A19AA10E944900DC01CB019E
:102430008E8F8E8D8F878F858A95F1F78F8782E0BB
:1024400062E040E00E94411880E090E0A0E0B0E44B
:102450008B879C87AD87BE876B857C858D859E85A8
:1024600020E030E04AEF54E40E941F02DC01CB017F
:102470008F839887A987BA876F81788589859A85A0
:1024800020E030E040E85FE30E94250488232CF43C
:1024900081E090E09E838D833FC06F817885898540
:1024A0009A8520E03FEF4FE757E40E94C5031816D6
:1024B0004CF56B857C858D859E8520E030E040E283
:1024C00051E40E941F02DC01CB01BC01CD010E943E
:1024D0004900DC01CB019E838D830FC088EC90E026
:1024E0009C838B838B819C810197F1F79C838B83E9
:1024F0008D819E8101979E838D838D819E81009722
:1025000069F714C06F81788589859A850E94490092
:10251000DC01CB019E838D838D819E819A8389838B
:1025200089819A810197F1F79A838983C95ADF4F8C
:102530000FB6F894DEBF0FBECDBFCF91DF911F91D4
:102540000F9108950F931F93DF93CF93CDB7DEB70D
:10255000C755D0400FB6F894DEBF0FBECDBFFE0109
:10256000E95AFF4F8083FE01E95AFF4F808182952F
:102570008F70982F917083E064E0492F0E9441187A
:10258000FE01E95AFF4F8081829586958770982FCA
:10259000917083E065E0492F0E944118FE01E95ADD
:1025A000FF4F80818295869586958370982F9170D4
:1025B00083E066E0492F0E944118FE01E95AFF4F6F
:1025C0008081982F991F9927991F83E067E0492FF1
:1025D0000E94411882E060E040E00E94411882E0E1
:1025E00061E040E00E94411882E062E041E00E9428
:1025F0004118FE01ED5AFF4F80E090E0A0E8BFE3F4
:1026000080839183A283B3838E01015B1F4FFE0100
:10261000ED5AFF4F60817181828193812BEA3AEA02
:102620004AE250E40E941F02DC01CB01F8018083E2
:102630009183A283B383FE01E15BFF4F60817181CF
:102640008281938120E030E040E85FE30E9425042E
:10265000882334F4FE01E25BFF4F81E08083E0C019
:10266000FE01E15BFF4F608171818281938120E0F7
:1026700030E04FE753E40E94C50318160CF0C0C0C9
:10268000FE01ED5AFF4F608171818281938120E0CC
:1026900030E04AE754E40E941903DC01CB01FE015B
:1026A000E65BFF4F80839183A283B3838E010A5B35
:1026B0001F4FFE01E65BFF4F608171818281938134
:1026C00020E030E04AEF54E40E941F02DC01CB011D
:1026D000F80180839183A283B383FE01EA5BFF4FFD
:1026E000608171818281938120E030E040E85FE386
:1026F0000E942504882344F4FE01EC5BFF4F81E037
:1027000090E09183808364C0FE01EA5BFF4F6081AB
:1027100071818281938120E03FEF4FE757E40E946F
:10272000C50318160CF043C0FE01E65BFF4F608145
:1027300071818281938120E030E040E251E40E9487
:102740001F02DC01CB018E010C5B1F4FBC01CD01D0
:102750000E944900DC01CB01F801918380831FC0F6
:10276000FE01EE5BFF4F88EC90E091838083FE01D9
:10277000EE5BFF4F808191810197F1F7FE01EE5BE7
:10278000FF4F91838083DE01AC5BBF4FFE01EC5BAA
:10279000FF4F80819181019711969C938E93FE014A
:1027A000EC5BFF4F808191810097D1F642C08E0192
:1027B0000C5B1F4FFE01EA5BFF4F608171818281DC
:1027C00093810E944900DC01CB01F8019183808351
:1027D000DE01A05CBF4FFE01EC5BFF4F8081918169
:1027E00011969C938E93FE01E05CFF4F8081918156
:1027F0000197F1F7FE01E05CFF4F9183808319C0E0
:102800008E01025B1F4FFE01E15BFF4F6081718112
:10281000828193810E944900DC01CB01F801808311
:10282000FE01E25BFF4F80818FAF8FAD8A95F1F79C
:102830008FAF82E062E040E00E94411880E090E0CB
:10284000A8E4B3E48BAF9CAFADAFBEAF6BAD7CADD6
:102850008DAD9EAD2BEA3AEA4AE250E40E941F0297
:10286000DC01CB018FAB98AFA9AFBAAF6FA978AD40
:1028700089AD9AAD20E030E040E85FE30E94250496
:1028800088231CF481E08EAB91C06FA978AD89AD2F
:102890009AAD20E030E04FE753E40E94C5031816DC
:1028A0000CF07BC06BAD7CAD8DAD9EAD20E030E01B
:1028B0004AE754E40E941903DC01CB018AAB9BABCD
:1028C000ACABBDAB6AA97BA98CA99DA920E030E087
:1028D0004AEF54E40E941F02DC01CB018EA79FA7A0
:1028E000A8ABB9AB6EA57FA588A999A920E030E077
:1028F00040E85FE30E94250488232CF481E090E007
:102900009DA78CA73FC06EA57FA588A999A920E0A7
:102910003FEF4FE757E40E94C50318164CF56AA92C
:102920007BA98CA99DA920E030E040E251E40E94FF
:102930001F02DC01CB01BC01CD010E944900DC017A
:10294000CB019DA78CA70FC088EC90E09BA78AA71E
:102950008AA59BA50197F1F79BA78AA78CA59DA5A2
:1029600001979DA78CA78CA59DA5009769F724C00A
:102970006EA57FA588A999A90E944900DC01CB0119
:102980009DA78CA78CA59DA599A788A788A599A583
:102990000197F1F799A788A70FC06FA978AD89AD06
:1029A0009AAD0E944900DC01CB018EAB8EA98FA3AA
:1029B0008FA18A95F1F78FA3FE01E95AFF4F80811D
:1029C000982F917083E064E0492F0E944118FE0126
:1029D000E95AFF4F80818695982F917083E065E0DA
:1029E000492F0E944118FE01E95AFF4F80818695C8
:1029F0008695982F917083E066E0492F0E944118D8
:102A0000FE01E95AFF4F8081869586958695982F1D
:102A1000917083E067E0492F0E94411882E062E0F4
:102A200041E00E94411880E090E0A0E8BFE38BA362
:102A30009CA3ADA3BEA36BA17CA18DA19EA12BEAFB
:102A40003AEA4AE250E40E941F02DC01CB018F8F78
:102A500098A3A9A3BAA36F8D78A189A19AA120E018
:102A600030E040E85FE30E94250488231CF481E005
:102A70008E8F91C06F8D78A189A19AA120E030E05E
:102A80004FE753E40E94C50318160CF07BC06BA1FE
:102A90007CA18DA19EA120E030E04AE754E40E9491
:102AA0001903DC01CB018A8F9B8FAC8FBD8F6A8DA0
:102AB0007B8D8C8D9D8D20E030E04AEF54E40E94A8
:102AC0001F02DC01CB018E8B9F8BA88FB98F6E8983
:102AD0007F89888D998D20E030E040E85FE30E9497
:102AE000250488232CF481E090E09D8B8C8B3FC0E3
:102AF0006E897F89888D998D20E03FEF4FE757E4FD
:102B00000E94C50318164CF56A8D7B8D8C8D9D8DAA
:102B100020E030E040E251E40E941F02DC01CB01E2
:102B2000BC01CD010E944900DC01CB019D8B8C8B47
:102B30000FC088EC90E09B8B8A8B8A899B890197D8
:102B4000F1F79B8B8A8B8C899D8901979D8B8C8B50
:102B50008C899D89009769F724C06E897F89888D4B
:102B6000998D0E944900DC01CB019D8B8C8B8C8957
:102B70009D89998B888B888999890197F1F7998B21
:102B8000888B0FC06F8D78A189A19AA10E944900FE
:102B9000DC01CB018E8F8E8D8F878F858A95F1F723
:102BA0008F8782E062E040E00E94411880E090E080
:102BB000A0E0B0E48B879C87AD87BE876B857C8562
:102BC0008D859E8520E030E04AEF54E40E941F028C
:102BD000DC01CB018F839887A987BA876F817885BD
:102BE00089859A8520E030E040E85FE30E94250473
:102BF00088232CF481E090E09E838D833FC06F8119
:102C0000788589859A8520E03FEF4FE757E40E9459
:102C1000C50318164CF56B857C858D859E8520E057
:102C200030E040E251E40E941F02DC01CB01BC0114
:102C3000CD010E944900DC01CB019E838D830FC032
:102C400088EC90E09C838B838B819C810197F1F7CA
:102C50009C838B838D819E8101979E838D838D8143
:102C60009E81009769F714C06F81788589859A8560
:102C70000E944900DC01CB019E838D838D819E8162
:102C80009A83898389819A810197F1F79A8389834D
:102C9000C95ADF4F0FB6F894DEBF0FBECDBFCF913C
:102CA000DF911F910F910895DF93CF9300D000D053
:102CB000CDB7DEB79C838B831A8219820FC029811E
:102CC0003A818B819C81FC01E20FF31F80810E947D
:102CD000F00E89819A8101969A83898329813A81AC
:102CE0008B819C81FC01E20FF31F8081882339F7DF
:102CF0000F900F900F900F90CF91DF910895DF9379
:102D0000CF93CDB7DEB768970FB6F894DEBF0FBE8E
:102D1000CDBF6D8B7E8B8F8B988F8D899E899E0109
:102D20002F5F3F4FB9014AE050E00E944931CE0188
:102D300001960E94541668960FB6F894DEBF0FBE37
:102D4000CDBFCF91DF910895DF93CF93CDB7DEB79D
:102D500081E00E94A212CF91DF910895DF93CF937B
:102D6000CDB7DEB782E00E94A212CF91DF91089525
:102D7000DF93CF9300D00F92CDB7DEB78A836B83FA
:102D800080E889838A81823019F48981806489830B
:102D900089819B81890F898389810E94A2120F906A
:102DA0000F900F90CF91DF910895EF92FF920F93C4
:102DB0001F93DF93CF93CDB7DEB72C970FB6F89460
:102DC000DEBF0FBECDBF9C838B837E836D83588710
:102DD0004F833A8729871C870B872B813C818D8104
:102DE0009E81A901481B590BCA017C0100E010E03B
:102DF0002B853C8589859A85A901481B590BCA01F9
:102E00009C0140E050E0C801B7010E94BD307B0149
:102E10008C012F81388589859A85A901481B590B1A
:102E2000CA019C0140E050E0C801B7010E94F030A7
:102E3000DA01C9019C018D819E81820F931F9A83C3
:102E4000898389819A812C960FB6F894DEBF0FBED4
:102E5000CDBFCF91DF911F910F91FF90EF9008951B
:102E6000DF93CF93CDB7DEB728970FB6F894DEBFC8
:102E70000FBECDBF8A836B834C8319828B818830D0
:102E800008F0F3C08C81823009F078C08A81282F45
:102E900030E038872F838F8198858230910561F1EA
:102EA0002F8138852330310534F48F819885813026
:102EB000910569F060C02F8138852330310589F193
:102EC0008F8198858430910509F440C054C0AAE3ED
:102ED000B0E0EAE3F0E08081482F8B81282F30E0DA
:102EE00081E090E0022E02C0880F991F0A94E2F759
:102EF000809584238C93BBC0A7E3B0E0E7E3F0E0C8
:102F00008081482F8B81282F30E081E090E0022ED5
:102F100002C0880F991F0A94E2F7809584238C934E
:102F2000A6C0A4E3B0E0E4E3F0E08081482F8B8109
:102F3000282F30E081E090E0022E02C0880F991F18
:102F40000A94E2F7809584238C9391C0A1E3B0E0CA
:102F5000E1E3F0E08081482F8B81282F30E081E091
:102F600090E0022E02C0880F991F0A94E2F7809524
:102F700084238C937CC081E0898379C08C818130EB
:102F800009F075C08A81282F30E03E832D838D8122
:102F90009E818230910551F12D813E812330310592
:102FA00034F48D819E818130910561F05BC02D816B
:102FB0003E812330310571F18D819E8184309105F0
:102FC000E9F150C0AAE3B0E0EAE3F0E08081482FE5
:102FD0008B81282F30E081E090E0022E02C0880F24
:102FE000991F0A94E2F7842B8C9341C0A7E3B0E0C9
:102FF000E7E3F0E08081482F8B81282F30E081E0EB
:1030000090E0022E02C0880F991F0A94E2F7842BE9
:103010008C932DC0A4E3B0E0E4E3F0E08081482F7E
:103020008B81282F30E081E090E0022E02C0880FD3
:10303000991F0A94E2F7842B8C9319C0A1E3B0E0A6
:10304000E1E3F0E08081482F8B81282F30E081E0A0
:1030500090E0022E02C0880F991F0A94E2F7842B99
:103060008C9305C081E0898302C081E089838981D6
:1030700028960FB6F894DEBF0FBECDBFCF91DF917B
:103080000895DF93CF93CDB7DEB728970FB6F894A6
:10309000DEBF0FBECDBF8A836B834C8319828B81C9
:1030A000883008F0F3C08C81882309F078C08A81C9
:1030B000282F30E038872F838F81988582309105C3
:1030C00061F12F8138852330310534F48F81988563
:1030D0008130910569F060C02F813885233031053A
:1030E00089F18F8198858430910509F440C054C0DE
:1030F000ABE3B0E0EBE3F0E08081482F8B81282F39
:1031000030E081E090E0022E02C0880F991F0A94FF
:10311000E2F7809584238C93BBC0A8E3B0E0E8E39A
:10312000F0E08081482F8B81282F30E081E090E013
:10313000022E02C0880F991F0A94E2F7809584231B
:103140008C93A6C0A5E3B0E0E5E3F0E08081482FD2
:103150008B81282F30E081E090E0022E02C0880FA2
:10316000991F0A94E2F7809584238C9391C0A2E37F
:10317000B0E0E2E3F0E08081482F8B81282F30E03F
:1031800081E090E0022E02C0880F991F0A94E2F7B6
:10319000809584238C937CC081E0898379C08C8165
:1031A000813009F075C08A81282F30E03E832D835D
:1031B0008D819E818230910551F12D813E81233098
:1031C000310534F48D819E818130910561F05BC0C1
:1031D0002D813E812330310571F18D819E818430B6
:1031E0009105E9F150C0ABE3B0E0EBE3F0E08081A2
:1031F000482F8B81282F30E081E090E0022E02C022
:10320000880F991F0A94E2F7842B8C9341C0A8E39E
:10321000B0E0E8E3F0E08081482F8B81282F30E098
:1032200081E090E0022E02C0880F991F0A94E2F715
:10323000842B8C932DC0A5E3B0E0E5E3F0E0808122
:10324000482F8B81282F30E081E090E0022E02C0D1
:10325000880F991F0A94E2F7842B8C9319C0A2E37C
:10326000B0E0E2E3F0E08081482F8B81282F30E04E
:1032700081E090E0022E02C0880F991F0A94E2F7C5
:10328000842B8C9305C081E0898302C081E089830F
:10329000898128960FB6F894DEBF0FBECDBFCF91BF
:1032A000DF910895DF93CF93CDB7DEB727970FB6A1
:1032B000F894DEBF0FBECDBF8A836B835D834C83E2
:1032C00019828C819D818130910509F47BC08B81AD
:1032D000883008F074C08A81282F30E03F832E8325
:1032E0004E815F814230510559F18E819F8183303B
:1032F000910534F42E813F812130310569F05CC0A5
:103300004E815F814330510579F18E819F818430F8
:10331000910509F43DC050C0E9E3F0E08081282F19
:1033200030E08B81882F90E0A90102C05595479528
:103330008A95E2F7CA018170EC81FD81808344C0E7
:10334000E6E3F0E08081282F30E08B81882F90E049
:10335000A90102C0559547958A95E2F7CA01817087
:10336000EC81FD81808330C0E3E3F0E08081282F91
:1033700030E08B81882F90E0A90102C055954795D8
:103380008A95E2F7CA018170EC81FD8180831CC0BF
:10339000E0E3F0E08081282F30E08B81882F90E0FF
:1033A000A90102C0559547958A95E2F7CA01817037
:1033B000EC81FD81808308C081E0898305C081E0C4
:1033C000898302C082E08983898127960FB6F894A9
:1033D000DEBF0FBECDBFCF91DF910895DF93CF93B6
:1033E00000D000D00F92CDB7DEB78A836B831982ED
:1033F0008A81282F30E03D832C838C819D8182300F
:103400009105D9F02C813D812330310534F48C8134
:103410009D818130910561F01FC02C813D81233059
:10342000310581F08C819D818430910581F014C03B
:10343000EBE3F0E08B81808311C0E8E3F0E08B8167
:1034400080830CC0E5E3F0E08B81808307C0E2E37A
:10345000F0E08B81808302C081E0898381E08983F1
:1034600089810F900F900F900F900F90CF91DF9167
:103470000895DF93CF93CDB7DEB7EAE3F0E080ECB9
:103480008083E7E3F0E08FEA8083E4E3F0E08FEF0E
:103490008083E1E3F0E08EEF8083EBE3F0E08CE308
:1034A0008083E8E3F0E01082E5E3F0E01082E2E3FD
:1034B000F0E01082CF91DF910895DF93CF9300D099
:1034C00000D00F92CDB7DEB78A836B8319828B81D0
:1034D000883008F073C08A81282F30E03D832C8328
:1034E0008C819D818230910551F12C813D81233069
:1034F000310534F48C819D818130910561F05BC090
:103500002C813D812330310571F18C819D81843086
:103510009105E9F150C0ABE3B0E0EBE3F0E080816E
:10352000482F8B81282F30E081E090E0022E02C0EE
:10353000880F991F0A94E2F784278C9341C0A8E36F
:10354000B0E0E8E3F0E08081482F8B81282F30E065
:1035500081E090E0022E02C0880F991F0A94E2F7E2
:1035600084278C932DC0A5E3B0E0E5E3F0E08081F3
:10357000482F8B81282F30E081E090E0022E02C09E
:10358000880F991F0A94E2F784278C9319C0A2E34D
:10359000B0E0E2E3F0E08081482F8B81282F30E01B
:1035A00081E090E0022E02C0880F991F0A94E2F792
:1035B00084278C9305C081E0898302C081E08983E0
:1035C00089810F900F900F900F900F90CF91DF9106
:1035D0000895DF93CF93CDB7DEB7AFE5B0E0EFE569
:1035E000F0E0808180688C93CF91DF910895DF9324
:1035F000CF93CDB7DEB7AFE5B0E0EFE5F0E0808187
:103600008F778C93CF91DF910895DF93CF93CDB7D0
:10361000DEB7ADE2B0E0EDE2F0E0808180628C9355
:10362000ADE2B0E0EDE2F0E0808180618C93ADE24C
:10363000B0E0EDE2F0E0808181608C93ADE2B0E03B
:10364000EDE2F0E080818D7F8C93AEE2B0E0EEE2BF
:10365000F0E080818E7F8C93ADE2B0E0EDE2F0E0AF
:103660008081877F8C93ADE2B0E0EDE2F0E0808175
:103670008B7F8C93ADE2B0E0EDE2F0E0808180647E
:103680008C93CF91DF910895DF93CF930F92CDB7B5
:10369000DEB78983EFE2F0E089818083EEE2F0E03B
:1036A00080818823DCF7EFE2F0E080810F90CF91FA
:1036B000DF910895DF93CF93CDB7DEB7A3E5B0E0F8
:1036C000E3E5F0E080818F7B8C93A3E5B0E0E3E558
:1036D000F0E0808188608C93A9E5B0E0E9E5F0E056
:1036E000808182608C93A3E5B0E0E3E5F0E0808127
:1036F0008E7F8C93A3E5B0E0E3E5F0E0808182600B
:103700008C93A3E5B0E0E3E5F0E080818B7F8C93C0
:10371000CF91DF910895DF93CF93CDB7DEB7A3E5C7
:10372000B0E0E3E5F0E080818E7F8C93A3E5B0E02C
:10373000E3E5F0E080818D7F8C93A3E5B0E0E3E5E5
:10374000F0E080818B7F8C93CF91DF910895DF93A0
:10375000CF930F92CDB7DEB78983ECE5F0E0898196
:1037600080830F90CF91DF910895DF93CF930F92D5
:10377000CDB7DEB78983E2E5F0E0898180830F90E1
:10378000CF91DF910895DF93CF930F92CDB7DEB73E
:103790008983ECE5F0E0898180830F90CF91DF9100
:1037A0000895DF93CF9300D0CDB7DEB79A83898396
:1037B00089819A8190931B0180931A010F900F9039
:1037C000CF91DF910895DF93CF9300D0CDB7DEB7CF
:1037D0009A83898389819A8190931D0180931C012A
:1037E0000F900F90CF91DF9108951F920F920FB617
:1037F0000F9211242F933F934F935F936F937F9377
:103800008F939F93AF93BF93EF93FF93DF93CF93E8
:10381000CDB7DEB780911A0190911B01009729F076
:10382000E0911A01F0911B010995CF91DF91FF9171
:10383000EF91BF91AF919F918F917F916F915F9128
:103840004F913F912F910F900FBE0F901F901895A1
:103850001F920F920FB60F9211242F933F934F9305
:103860005F936F937F938F939F93AF93BF93EF93E8
:10387000FF93DF93CF93CDB7DEB780911C0190917A
:103880001D01009729F0E0911C01F0911D0109959F
:10389000CF91DF91FF91EF91BF91AF919F918F9168
:1038A0007F916F915F914F913F912F910F900FBE3C
:1038B0000F901F901895DF93CF93CDB7DEB7299760
:1038C0000FB6F894DEBF0FBECDBF89836A834B83EA
:1038D0008981282F30E0398728878885998581302C
:1038E000910579F1288539852230310509F446C0E2
:1038F00088859985009709F05DC0AFE4B0E0EFE4FA
:10390000F0E080818F7B8C93AFE4B0E0EFE4F0E0F7
:1039100080818F7E8C93AFE4B0E0EFE4F0E08081B3
:103920008F778C93AFE4B0E0EFE4F0E080818F7D9F
:103930008C93A9E5B0E0E9E5F0E0808180618C93AB
:1039400039C0AFE4B0E0EFE4F0E080818F7B8C938E
:10395000AFE4B0E0EFE4F0E080818F7E8C93AFE4E1
:10396000B0E0EFE4F0E0808180688C93AFE4B0E0F9
:10397000EFE4F0E0808180628C931CC0AFE4B0E0A3
:10398000EFE4F0E080818F7B8C93AFE4B0E0EFE474
:10399000F0E080818F7E8C93AFE4B0E0EFE4F0E064
:1039A000808180688C93AFE4B0E0EFE4F0E0808148
:1039B00080628C938A81282F30E03F832E838E8112
:1039C0009F8181309105B1F02E813F8122303105F8
:1039D0002CF48E819F81009751F17FC02E813F8111
:1039E0002230310509F45DC08E819F8183309105BD
:1039F000D9F173C0AFE4B0E0EFE4F0E080818E7FF6
:103A00008C93AFE4B0E0EFE4F0E080818D7F8C93A5
:103A1000AEE4B0E0EEE4F0E0808188608C93AEE448
:103A2000B0E0EEE4F0E0808180618C9356C0AFE4BA
:103A3000B0E0EFE4F0E080818E7F8C93AFE4B0E003
:103A4000EFE4F0E080818D7F8C93AEE4B0E0EEE4B3
:103A5000F0E0808188608C93AEE4B0E0EEE4F0E0CA
:103A600080818F7E8C9339C0AFE4B0E0EFE4F0E06A
:103A700080818E7F8C93AFE4B0E0EFE4F0E0808152
:103A800082608C93AEE4B0E0EEE4F0E08081886088
:103A90008C93AEE4B0E0EEE4F0E0808180618C9342
:103AA0001CC0AFE4B0E0EFE4F0E0808181608C9373
:103AB000AFE4B0E0EFE4F0E0808182608C93AEE4AC
:103AC000B0E0EEE4F0E0808188608C93AEE4B0E09A
:103AD000EEE4F0E0808180618C938B81282F30E0D0
:103AE0003D832C838C819D818230910509F448C0EF
:103AF0002C813D812330310554F48C819D810097C8
:103B000099F02C813D812130310521F17AC08C81E1
:103B10009D818330910509F449C02C813D81243079
:103B2000310509F459C06DC0AEE4B0E0EEE4F0E058
:103B3000808181608C93AEE4B0E0EEE4F0E08081BF
:103B40008D7F8C93AEE4B0E0EEE4F0E080818B7F7B
:103B50008C9357C0AEE4B0E0EEE4F0E080818E7F5D
:103B60008C93AEE4B0E0EEE4F0E0808182608C9370
:103B7000AEE4B0E0EEE4F0E080818B7F8C9341C056
:103B8000AEE4B0E0EEE4F0E0808181608C93AEE4DE
:103B9000B0E0EEE4F0E0808182608C93AEE4B0E0CF
:103BA000EEE4F0E080818B7F8C932BC0AEE4B0E03C
:103BB000EEE4F0E080818E7F8C93AEE4B0E0EEE442
:103BC000F0E080818D7F8C93AEE4B0E0EEE4F0E035
:103BD000808184608C9315C0AEE4B0E0EEE4F0E048
:103BE000808181608C93AEE4B0E0EEE4F0E080810F
:103BF0008D7F8C93AEE4B0E0EEE4F0E080818460F1
:103C00008C9329960FB6F894DEBF0FBECDBFCF912F
:103C1000DF910895DF93CF93CDB7DEB7AEE4B0E088
:103C2000EEE4F0E080818E7F8C93AEE4B0E0EEE4D1
:103C3000F0E080818D7F8C93AEE4B0E0EEE4F0E0C4
:103C400080818B7F8C93CF91DF910895DF93CF9309
:103C500000D000D00F92CDB7DEB79A8389836B83F3
:103C60008B81282F30E03D832C838C819D81813096
:103C70009105A9F02C813D81223031052CF48C81F5
:103C80009D81009799F026C02C813D81223031051D
:103C9000D9F08C819D818330910579F01BC0E6E4D9
:103CA000F0E089819A819183808314C0EAE4F0E096
:103CB00089819A81918380830DC0E6E4F0E0898157
:103CC0009A819183808306C0EAE4F0E089819A8139
:103CD000918380830F900F900F900F900F90CF9152
:103CE000DF910895DF93CF9300D0CDB7DEB79A83ED
:103CF0008983EAE4F0E089819A81918380830F903F
:103D00000F90CF91DF910895DF93CF9300D0CDB77F
:103D1000DEB79A83898389819A8190931F0180936A
:103D20001E010F900F90CF91DF910895DF93CF93F5
:103D300000D00F92CDB7DEB789838981282F30E07C
:103D40003B832A838A819B818230910509F448C094
:103D50002A813B812330310554F48A819B8100976D
:103D600099F02A813B812130310521F17AC08A8185
:103D70009B818330910509F449C02A813B8124301D
:103D8000310509F459C06DC0AEE4B0E0EEE4F0E0F6
:103D9000808181608C93AEE4B0E0EEE4F0E080815D
:103DA0008D7F8C93AEE4B0E0EEE4F0E080818B7F19
:103DB0008C9357C0AEE4B0E0EEE4F0E080818E7FFB
:103DC0008C93AEE4B0E0EEE4F0E0808182608C930E
:103DD000AEE4B0E0EEE4F0E080818B7F8C9341C0F4
:103DE000AEE4B0E0EEE4F0E0808181608C93AEE47C
:103DF000B0E0EEE4F0E0808182608C93AEE4B0E06D
:103E0000EEE4F0E080818B7F8C932BC0AEE4B0E0D9
:103E1000EEE4F0E080818E7F8C93AEE4B0E0EEE4DF
:103E2000F0E080818D7F8C93AEE4B0E0EEE4F0E0D2
:103E3000808184608C9315C0AEE4B0E0EEE4F0E0E5
:103E4000808181608C93AEE4B0E0EEE4F0E08081AC
:103E50008D7F8C93AEE4B0E0EEE4F0E0808184608E
:103E60008C930F900F900F90CF91DF910895DF9377
:103E7000CF9300D00F92CDB7DEB789838981282FE9
:103E800030E03B832A838A819B818130910569F0F0
:103E90002A813B812230310579F4AEE4B0E0EEE4D2
:103EA000F0E0808180648C9307C0AEE4B0E0EEE483
:103EB000F0E080818F7B8C930F900F900F90CF91CB
:103EC000DF910895DF93CF93CDB7DEB7A9E5B0E0DA
:103ED000E9E5F0E0808180628C93CF91DF910895D5
:103EE000DF93CF93CDB7DEB7A9E5B0E0E9E5F0E029
:103EF00080818F7D8C93CF91DF910895DF93CF9355
:103F0000CDB7DEB7E6E4F0E080819181CF91DF911B
:103F10000895DF93CF9300D0CDB7DEB79A8389831E
:103F200089819A8190932101809320010F900F90B5
:103F3000CF91DF9108951F920F920FB60F92112427
:103F40002F933F934F935F936F937F938F939F93A1
:103F5000AF93BF93EF93FF93DF93CF93CDB7DEB7CC
:103F60008091200190912101009729F0E09120019A
:103F7000F09121010995CF91DF91FF91EF91BF91D0
:103F8000AF919F918F917F916F915F914F913F91F1
:103F90002F910F900FBE0F901F9018951F920F92A8
:103FA0000FB60F9211242F933F934F935F936F930C
:103FB0007F938F939F93AF93BF93EF93FF93DF9381
:103FC000CF93CDB7DEB780911E0190911F0100976E
:103FD00029F0E0911E01F0911F010995CF91DF9129
:103FE000FF91EF91BF91AF919F918F917F916F91D1
:103FF0005F914F913F912F910F900FBE0F901F90A7
:104000001895DF93CF93CDB7DEB7A5E4B0E0E5E434
:10401000F0E080818F7B8C93A5E4B0E0E5E4F0E0F4
:10402000808188608C93A5E4B0E0E5E4F0E08081D5
:104030008F7E8C93A5E4B0E0E5E4F0E080818F7D95
:104040008C93A9E5B0E0E9E5F0E0808180688C938D
:10405000A5E4B0E0E5E4F0E080818E7F8C93A5E4F8
:10406000B0E0E5E4F0E0808182608C93A5E4B0E00C
:10407000E5E4F0E080818B7F8C93CF91DF91089510
:10408000DF93CF93CDB7DEB7A5E4B0E0E5E4F0E091
:1040900080818E7F8C93A5E4B0E0E5E4F0E0808140
:1040A0008D7F8C93A5E4B0E0E5E4F0E080818B7F28
:1040B0008C93CF91DF910895DF93CF930F92CDB77B
:1040C000DEB78983E4E4F0E0898180830F90CF91AB
:1040D000DF910895DF93CF930F92CDB7DEB7898339
:1040E000E3E4F0E0898180830F90CF91DF91089520
:1040F000DF93CF930F92CDB7DEB78983E3E4F0E08F
:10410000898180830F90CF91DF910895DF93CF93C2
:1041100000D0CDB7DEB79A83898389819A81909345
:104120002301809322010F900F90CF91DF9108958A
:10413000DF93CF9300D0CDB7DEB79A83898389818F
:104140009A8190932501809324010F900F90CF9135
:10415000DF9108951F920F920FB60F9211242F93A3
:104160003F934F935F936F937F938F939F93AF93FF
:10417000BF93EF93FF93DF93CF93CDB7DEB78091DB
:10418000220190912301009729F0E0912201F09102
:1041900023010995CF91DF91FF91EF91BF91AF91ED
:1041A0009F918F917F916F915F914F913F912F914F
:1041B0000F900FBE0F901F9018951F920F920FB681
:1041C0000F9211242F933F934F935F936F937F939D
:1041D0008F939F93AF93BF93EF93FF93DF93CF930F
:1041E000CDB7DEB78091240190912501009729F089
:1041F000E0912401F09125010995CF91DF91FF9184
:10420000EF91BF91AF919F918F917F916F915F914E
:104210004F913F912F910F900FBE0F901F901895C7
:10422000DF93CF93CDB7DEB7E2E2F0E082E08083A8
:10423000E1E2F0E01082E0E2F0E082E08083A6E5D7
:10424000B0E0E6E5F0E0808184608C93CF91DF916F
:104250000895DF93CF93CDB7DEB7E6E5F0E084EACB
:104260008083E6E5F0E080818823DCF7CF91DF9161
:104270000895DF93CF930F92CDB7DEB78983E3E242
:10428000F0E089818083A6E5B0E0E6E5F0E080819A
:104290008F7D8C93A6E5B0E0E6E5F0E08081806854
:1042A0008C93A6E5B0E0E6E5F0E0808184608C9335
:1042B000E6E5F0E080818823DCF70F90CF91DF9175
:1042C0000895DF93CF93CDB7DEB7A6E5B0E0E6E57E
:1042D000F0E080818F7D8C93A6E5B0E0E6E5F0E02C
:1042E000808180688C93A6E5B0E0E6E5F0E080810F
:1042F00084608C93E6E5F0E080818823DCF7E3E2DC
:10430000F0E08081CF91DF910895DF93CF93CDB717
:10431000DEB7E6E5F0E084E98083CF91DF91089590
:10432000DF93CF93CDB7DEB7E1E2F0E08081887F05
:10433000CF91DF910895DF93CF930F92CDB7DEB782
:104340001982AAE2B0E0EAE2F0E0808180618C9319
:10435000AAE2B0E0EAE2F0E0808188608C93898193
:1043600082608983898184608983AAE2B0E0EAE27D
:10437000F0E080818B7F8C9389818068898389813B
:104380008F7B89838981877F8983E0E4F0E089815D
:104390008083E9E2F0E083E38083AAE2B0E0EAE22E
:1043A000F0E0808180688C930F90CF91DF91089529
:1043B000DF93CF930F92CDB7DEB78983EBE2F0E0C6
:1043C00080818295869587708823C1F3ECE2F0E0C6
:1043D000898180830F90CF91DF910895DF93CF93F0
:1043E000CDB7DEB7EBE2F0E080818823DCF7ECE2CA
:1043F000F0E08081CF91DF910895DF93CF9300D0DB
:10440000CDB7DEB79A83898389819A8190932701FA
:10441000809326010F900F90CF91DF9108951F9206
:104420000F920FB60F9211242F933F934F935F93E8
:104430006F937F938F939F93AF93BF93EF93FF936C
:10444000DF93CF93CDB7DEB78091260190912701FE
:10445000009729F0E0912601F09127010995CF916D
:10446000DF91FF91EF91BF91AF919F918F917F91DC
:104470006F915F914F913F912F910F900FBE0F90D1
:104480001F9018950F931F93DF93CF93CDB7DEB78F
:10449000C758D0400FB6F894DEBF0FBECDBFFE01A7
:1044A000E957FF4F1082FE01EB57FF4F1082FE01CC
:1044B000ED57FF4F80E197E291838083FE01EF5734
:1044C000FF4F11821082FE01E158FF4F11821082CE
:1044D0000E94391A0E94D2070E9410210E949B213B
:1044E00086E990E30E94FD210E94E91A0E944F068E
:1044F0008FE390E30E94990687EA90E30E94841E6E
:1045000087E891E061E00E94261E81E060E00E9461
:10451000B81680E690E00E94541682E060E00E94A7
:10452000B81681E790E00E9454160E941A07FE0117
:10453000EA57FF4F8083FE01EA57FF4F80818F3F8C
:1045400021F3FE01EA57FF4F80818332F9F40E9484
:10455000A41681E060E00E94B8168CE790E00E940B
:10456000541682E060E00E94B81688E890E00E944D
:1045700054160E941A07FE01EA57FF4F8083FE017E
:10458000EA57FF4F80818F3FA1F3BFCFFE01EA576B
:10459000FF4F8081813009F00BC50E94A41681E095
:1045A00060E00E94B81683E990E00E945416FE0174
:1045B000ED57FF4F80E197E291838083FE01EF5733
:1045C000FF4F11821082FE01E957FF4F108251C048
:1045D0000E941A07FE01EA57FF4F8083FE01EA5747
:1045E000FF4F80818F3FA1F3FE01EA57FF4F80818B
:1045F000882F90E0A0E0B0E0BC01CD010E947F16C2
:104600008E010D571F4FFE01ED57FF4F80819181A5
:104610002AE030E0B9010E94DC30CB01F80191833F
:104620008083FE01EA57FF4F8081282F30E0FE0192
:10463000ED57FF4F80819181A901489F9001499FCB
:10464000300D589F300D1124DE01AF57BF4FFE01D2
:10465000EF57FF4F80819181820F931F8D939C9321
:10466000DE01A957BF4FFE01E957FF4F80818F5FE1
:104670008C93FE01E957FF4F8081843008F4A8CF66
:10468000FE01EF57FF4F808191810E948D2FFE0127
:10469000E558FF4F80E090E0A0E7B1E4808391838C
:1046A000A283B3838E0109581F4FFE01E558FF4FC7
:1046B000608171818281938120E030E04AEF54E48F
:1046C0000E941F02DC01CB01F80180839183A28349
:1046D000B383FE01E958FF4F60817181828193812C
:1046E00020E030E040E85FE30E942504882344F4A2
:1046F000FE01EB58FF4F81E090E09183808364C01E
:10470000FE01E958FF4F608171818281938120E031
:104710003FEF4FE757E40E94C50318160CF043C063
:10472000FE01E558FF4F608171818281938120E015
:1047300030E040E251E40E941F02DC01CB018E0117
:104740000B581F4FBC01CD010E944900DC01CB0179
:10475000F801918380831FC0FE01ED58FF4F88EC64
:1047600090E091838083FE01ED58FF4F808191811D
:104770000197F1F7FE01ED58FF4F91838083DE0131
:10478000AB58BF4FFE01EB58FF4F808191810197DD
:1047900011969C938E93FE01EB58FF4F808191817F
:1047A0000097D1F628C08E010B581F4FFE01E95823
:1047B000FF4F60817181828193810E944900DC01F9
:1047C000CB01F80191838083DE01AF58BF4FFE011A
:1047D000EB58FF4F8081918111969C938E93FE013F
:1047E000EF58FF4F808191810197F1F7FE01EF585B
:1047F000FF4F9183808380912901882309F44CC362
:104800000E94A4168EE990E00E945416FE01ED5716
:10481000FF4F80E197E291838083FE01E158FF4FD3
:1048200011821082FE01E957FF4F108251C00E9491
:104830001A07FE01EA57FF4F8083FE01EA57FF4F38
:1048400080818F3FA1F3FE01EA57FF4F8081882FBF
:1048500090E0A0E0B0E0BC01CD010E947F168E0187
:104860000D571F4FFE01ED57FF4F808191812AE0C8
:1048700030E0B9010E94DC30CB01F80191838083E4
:10488000FE01EA57FF4F8081282F30E0FE01ED57EF
:10489000FF4F80819181A901489F9001499F300D70
:1048A000589F300D1124DE01A158BF4FFE01E15881
:1048B000FF4F80819181820F931F8D939C93DE0126
:1048C000A957BF4FFE01E957FF4F80818F5F8C933F
:1048D000FE01E957FF4F8081843008F4A8CFFE0124
:1048E000E158FF4F808191810E94CA2FFE01E35958
:1048F000FF4F80E090E0A0E7B1E480839183A28342
:10490000B3838E0107591F4FFE01E359FF4F6081AA
:1049100071818281938120E030E04AEF54E40E946B
:104920001F02DC01CB01F80180839183A283B38352
:10493000FE01E759FF4F608171818281938120E000
:1049400030E040E85FE30E942504882344F4FE0140
:10495000E959FF4F81E090E09183808364C0FE01BC
:10496000E759FF4F608171818281938120E03FEFA1
:104970004FE757E40E94C50318160CF043C0FE0130
:10498000E359FF4F608171818281938120E030E0A3
:1049900040E251E40E941F02DC01CB018E01095963
:1049A0001F4FBC01CD010E944900DC01CB01F80181
:1049B000918380831FC0FE01EB59FF4F88EC90E08C
:1049C00091838083FE01EB59FF4F80819181019794
:1049D000F1F7FE01EB59FF4F91838083DE01A95966
:1049E000BF4FFE01E959FF4F8081918101971196D8
:1049F0009C938E93FE01E959FF4F8081918100972E
:104A0000D1F628C08E0109591F4FFE01E759FF4F0B
:104A100060817181828193810E944900DC01CB0118
:104A2000F80191838083DE01AD59BF4FFE01E95942
:104A3000FF4F8081918111969C938E93FE01ED59D9
:104A4000FF4F808191810197F1F7FE01ED59FF4FF2
:104A50009183808380912A01813081F410922A0110
:104A60000E94A41685EA90E00E9454160E94051B3D
:104A700080E061E044E00E945B1CFFCF0E94A4162E
:104A8000FE01EB57FF4F1082FFC1FE01ED57FF4FB4
:104A900080E197E291838083FE01E158FF4F11820C
:104AA000108286EB90E00E945416FE01E15AFF4FFF
:104AB00080E090E0AAEFB3E480839183A283B38384
:104AC0008E01055A1F4FFE01E15AFF4F608171812F
:104AD0008281938120E030E04AEF54E40E941F027B
:104AE000DC01CB01F80180839183A283B383FE01B3
:104AF000E55AFF4F608171818281938120E030E02F
:104B000040E85FE30E942504882344F4FE01E75A4D
:104B1000FF4F81E090E09183808364C0FE01E55AFD
:104B2000FF4F608171818281938120E03FEF4FE7E9
:104B300057E40E94C50318160CF043C0FE01E15A69
:104B4000FF4F608171818281938120E030E040E2FB
:104B500051E40E941F02DC01CB018E01075A1F4F56
:104B6000BC01CD010E944900DC01CB01F801918319
:104B700080831FC0FE01E95AFF4F88EC90E09183CB
:104B80008083FE01E95AFF4F808191810197F1F7FF
:104B9000FE01E95AFF4F91838083DE01A75ABF4F80
:104BA000FE01E75AFF4F80819181019711969C93F6
:104BB0008E93FE01E75AFF4F808191810097D1F6D5
:104BC00027C08E01075A1F4FFE01E55AFF4F608133
:104BD0007181828193810E944900DC01CB01F8013F
:104BE00091838083DE01AB5ABF4FFE01E75AFF4F2E
:104BF000808191818D939C93FE01EB5AFF4F8081C0
:104C000091810197F1F7FE01EB5AFF4F9183808369
:104C10000E94A41681EC90E00E945416FE01E95710
:104C2000FF4F108251C00E941A07FE01EA57FF4F42
:104C30008083FE01EA57FF4F80818F3FA1F3FE0181
:104C4000EA57FF4F8081882F90E0A0E0B0E0BC01E0
:104C5000CD010E947F168E010D571F4FFE01ED57AB
:104C6000FF4F808191812AE030E0B9010E94DC3061
:104C7000CB01F80191838083FE01EA57FF4F8081C9
:104C8000282F30E0FE01ED57FF4F80819181A9016F
:104C9000489F9001499F300D589F300D1124DE012F
:104CA000A158BF4FFE01E158FF4F80819181820FD3
:104CB000931F8D939C93DE01A957BF4FFE01E957C7
:104CC000FF4F80818F5F8C93FE01E957FF4F8081FA
:104CD000843008F4A8CFFE01E158FF4F8081918114
:104CE0000E94CA2F80912A01813081F410922A01FA
:104CF0000E94A41685EA90E00E9454160E94051BAB
:104D000080E061E044E00E945B1CFFCFFE01EF5AAF
:104D1000FF4F80E090E0AAEFB3E480839183A28309
:104D2000B3838E01035B1F4FFE01EF5AFF4F60817B
:104D300071818281938120E030E04AEF54E40E9447
:104D40001F02DC01CB01F80180839183A283B3832E
:104D5000FE01E35BFF4F608171818281938120E0DE
:104D600030E040E85FE30E942504882344F4FE011C
:104D7000E55BFF4F81E090E09183808364C0FE019A
:104D8000E35BFF4F608171818281938120E03FEF7F
:104D90004FE757E40E94C50318160CF043C0FE010C
:104DA000EF5AFF4F608171818281938120E030E072
:104DB00040E251E40E941F02DC01CB018E01055B41
:104DC0001F4FBC01CD010E944900DC01CB01F8015D
:104DD000918380831FC0FE01E75BFF4F88EC90E06A
:104DE00091838083FE01E75BFF4F80819181019772
:104DF000F1F7FE01E75BFF4F91838083DE01A55B46
:104E0000BF4FFE01E55BFF4F8081918101971196B5
:104E10009C938E93FE01E55BFF4F8081918100970B
:104E2000D1F627C08E01055B1F4FFE01E35BFF4FEC
:104E300060817181828193810E944900DC01CB01F4
:104E4000F80191838083DE01A95BBF4FFE01E55B22
:104E5000FF4F808191818D939C93FE01E95BFF4F11
:104E6000808191810197F1F7FE01E95BFF4F91830A
:104E700080830E94A416DE01AB57BF4FFE01EB57A3
:104E8000FF4F80818F5F8C93FE01EB57FF4F808136
:104E9000833008F4FACD39CB0E94A41689EC90E057
:104EA0000E945416FE01ED5BFF4F80E090E0AAEFF8
:104EB000B3E480839183A283B3838E01015C1F4F8F
:104EC000FE01ED5BFF4F608171818281938120E063
:104ED00030E04AEF54E40E941F02DC01CB01F801EC
:104EE00080839183A283B383FE01FF9660817181E9
:104EF0008281938120E030E040E85FE30E94250456
:104F000088232CF481E090E09EAF8DAF46C0FE0177
:104F1000FF96608171818281938120E03FEF4FE7AE
:104F200057E40E94C503181664F5FE01ED5BFF4FC0
:104F3000608171818281938120E030E040E251E420
:104F40000E941F02DC01CB01BC01CD010E9449007F
:104F5000DC01CB019EAF8DAF0FC088EC90E09CAF21
:104F60008BAF8BAD9CAD0197F1F79CAF8BAF8DAD47
:104F70009EAD01979EAF8DAF8DAD9EAD009769F749
:104F8000C4CAFE01FF9660817181828193810E9473
:104F90004900DC01CB019EAF8DAF8DAD9EAD9AAFC8
:104FA00089AF89AD9AAD0197F1F79AAF89AFADCAD4
:104FB000FE01EA57FF4F8081823009F0DDC30E9475
:104FC000A41681E060E00E94B81683E990E00E9498
:104FD0005416FE01ED57FF4F80E197E291838083E5
:104FE000FE01EF57FF4F11821082FE01E957FF4F7C
:104FF000108251C00E941A07FE01EA57FF4F8083BA
:10500000FE01EA57FF4F80818F3FA1F3FE01EA576F
:10501000FF4F8081882F90E0A0E0B0E0BC01CD017F
:105020000E947F168E010D571F4FFE01ED57FF4F57
:10503000808191812AE030E0B9010E94DC30CB010F
:10504000F80191838083FE01EA57FF4F8081282F6A
:1050500030E0FE01ED57FF4F80819181A901489F0B
:105060009001499F300D589F300D1124DE01AF573C
:10507000BF4FFE01EF57FF4F80819181820F931F39
:105080008D939C93DE01A957BF4FFE01E957FF4F57
:1050900080818F5F8C93FE01E957FF4F80818430C0
:1050A00008F4A8CFFE01EF57FF4F808191810E9445
:1050B0008D2F80912901882309F427CA0E94A41604
:1050C00082ED90E00E945416FE01ED57FF4F80E103
:1050D00097E291838083FE01E158FF4F1182108295
:1050E000FE01E957FF4F108251C00E941A07FE01CE
:1050F000EA57FF4F8083FE01EA57FF4F80818F3FC1
:10510000A1F3FE01EA57FF4F8081882F90E0A0E0D5
:10511000B0E0BC01CD010E947F168E010D571F4FDC
:10512000FE01ED57FF4F808191812AE030E0B90107
:105130000E94DC30CB01F80191838083FE01EA57A5
:10514000FF4F8081282F30E0FE01ED57FF4F808117
:105150009181A901489F9001499F300D589F300DC2
:105160001124DE01A158BF4FFE01E158FF4F80819D
:105170009181820F931F8D939C93DE01A957BF4F9E
:10518000FE01E957FF4F80818F5F8C93FE01E95745
:10519000FF4F8081843008F4A8CFFE01E158FF4F13
:1051A000808191810E94CA2F80E090E0A0E7B1E465
:1051B0008DAB9EABAFABB8AF6DA97EA98FA998ADF3
:1051C00020E030E04AEF54E40E941F02DC01CB01F2
:1051D00089AB9AABABABBCAB69A97AA98BA99CA9EB
:1051E00020E030E040E85FE30E94250488232CF4AF
:1051F00081E090E098AB8FA73FC069A97AA98BA9FD
:105200009CA920E03FEF4FE757E40E94C503181622
:105210004CF56DA97EA98FA998AD20E030E040E261
:1052200051E40E941F02DC01CB01BC01CD010E94B0
:105230004900DC01CB0198AB8FA70FC088EC90E050
:105240009EA78DA78DA59EA50197F1F79EA78DA777
:105250008FA598A9019798AB8FA78FA598A90097BC
:1052600069F714C069A97AA98BA99CA90E94490071
:10527000DC01CB0198AB8FA78FA598A99CA78BA722
:105280008BA59CA50197F1F79CA78BA780912A017C
:10529000813009F079C010922A010E94A4168EED87
:1052A00090E00E945416FE01ED57FF4F80E197E217
:1052B00091838083FE01E158FF4F11821082FE012D
:1052C000E957FF4F108251C00E941A07FE01EA57AA
:1052D000FF4F8083FE01EA57FF4F80818F3FA1F38C
:1052E000FE01EA57FF4F8081882F90E0A0E0B0E0F8
:1052F000BC01CD010E947F168E010D571F4FFE018C
:10530000ED57FF4F808191812AE030E0B9010E9482
:10531000DC30CB01F80191838083FE01EA57FF4F17
:105320008081282F30E0FE01ED57FF4F8081918171
:10533000A901489F9001499F300D589F300D1124BD
:10534000DE01A158BF4FFE01E158FF4F80819181DE
:10535000820F931F8D939C93DE01A957BF4FFE01CF
:10536000E957FF4F80818F5F8C93FE01E957FF4F14
:105370008081843008F4A8CFFE01E158FF4F80817E
:1053800091810E94182FC1C80E94A416FE01EB57FC
:10539000FF4F1082E8C1FE01ED57FF4F80E197E219
:1053A00091838083FE01E158FF4F1182108286EBCA
:1053B00090E00E94541680E090E0AAEFB3E48FA33F
:1053C00098A7A9A7BAA76FA178A589A59AA520E053
:1053D00030E04AEF54E40E941F02DC01CB018BA3B2
:1053E0009CA3ADA3BEA36BA17CA18DA19EA120E037
:1053F00030E040E85FE30E94250488232CF481E03C
:1054000090E09AA389A33FC06BA17CA18DA19EA12E
:1054100020E03FEF4FE757E40E94C50318164CF514
:105420006FA178A589A59AA520E030E040E251E47B
:105430000E941F02DC01CB01BC01CD010E9449008A
:10544000DC01CB019AA389A30FC088EC90E098A35C
:105450008F8F8F8D98A10197F1F798A38F8F89A1D6
:105460009AA101979AA389A389A19AA1009769F7A4
:1054700014C06BA17CA18DA19EA10E944900DC01FA
:10548000CB019AA389A389A19AA19E8F8D8F8D8D1F
:105490009E8D0197F1F79E8F8D8F0E94A41682ED4D
:1054A00090E00E945416FE01E957FF4F108251C050
:1054B0000E941A07FE01EA57FF4F8083FE01EA5758
:1054C000FF4F80818F3FA1F3FE01EA57FF4F80819C
:1054D000882F90E0A0E0B0E0BC01CD010E947F16D3
:1054E0008E010D571F4FFE01ED57FF4F80819181B7
:1054F0002AE030E0B9010E94DC30CB01F801918351
:105500008083FE01EA57FF4F8081282F30E0FE01A3
:10551000ED57FF4F80819181A901489F9001499FDC
:10552000300D589F300D1124DE01A158BF4FFE01F0
:10553000E158FF4F80819181820F931F8D939C933F
:10554000DE01A957BF4FFE01E957FF4F80818F5FF2
:105550008C93FE01E957FF4F8081843008F4A8CF77
:10556000FE01E158FF4F808191810E94CA2F8091F6
:105570002A01813009F07AC010922A010E94A416F3
:105580008EED90E00E945416FE01ED57FF4F80E132
:1055900097E291838083FE01E158FF4F11821082D0
:1055A000FE01E957FF4F108251C00E941A07FE0109
:1055B000EA57FF4F8083FE01EA57FF4F80818F3FFC
:1055C000A1F3FE01EA57FF4F8081882F90E0A0E011
:1055D000B0E0BC01CD010E947F168E010D571F4F18
:1055E000FE01ED57FF4F808191812AE030E0B90143
:1055F0000E94DC30CB01F80191838083FE01EA57E1
:10560000FF4F8081282F30E0FE01ED57FF4F808152
:105610009181A901489F9001499F300D589F300DFD
:105620001124DE01A158BF4FFE01E158FF4F8081D8
:105630009181820F931F8D939C93DE01A957BF4FD9
:10564000FE01E957FF4F80818F5F8C93FE01E95780
:10565000FF4F8081843008F4A8CFFE01E158FF4F4E
:10566000808191810E94182F0C94852280E090E027
:10567000AAEFB3E4898F9A8FAB8FBC8F698D7A8D37
:105680008B8D9C8D20E030E04AEF54E40E941F0295
:10569000DC01CB018D8B9E8BAF8BB88F6D897E89A2
:1056A0008F89988D20E030E040E85FE30E94250478
:1056B00088232CF481E090E09C8B8B8B3FC06D891C
:1056C0007E898F89988D20E03FEF4FE757E40E9455
:1056D000C50318164CF5698D7A8D8B8D9C8D20E055
:1056E00030E040E251E40E941F02DC01CB01BC012A
:1056F000CD010E944900DC01CB019C8B8B8B0FC03C
:1057000088EC90E09A8B898B89899A890197F1F7C7
:105710009A8B898B8B899C8901979C8B8B8B8B892E
:105720009C89009769F714C06D897E898F89988D4F
:105730000E944900DC01CB019C8B8B8B8B899C895F
:10574000988B8F878F8598890197F1F7988B8F8732
:105750000E94A416DE01AB57BF4FFE01EB57FF4F6F
:1057600080818F5F8C93FE01EB57FF4F80818230E9
:1057700008F411CE0C948522FE01EA57FF4F808178
:10578000833011F00C9485220E94A41681E060E021
:105790000E94B8168AEE90E00E945416FE01ED5762
:1057A000FF4F80E197E291838083FE01EF57FF4F27
:1057B00011821082FE01E957FF4F108251C00E94F2
:1057C0001A07FE01EA57FF4F8083FE01EA57FF4F99
:1057D00080818F3FA1F3FE01EA57FF4F8081882F20
:1057E00090E0A0E0B0E0BC01CD010E947F168E01E8
:1057F0000D571F4FFE01ED57FF4F808191812AE029
:1058000030E0B9010E94DC30CB01F8019183808344
:10581000FE01EA57FF4F8081282F30E0FE01ED574F
:10582000FF4F80819181A901489F9001499F300DD0
:10583000589F300D1124DE01AF57BF4FFE01EF57C7
:10584000FF4F80819181820F931F8D939C93DE0186
:10585000A957BF4FFE01E957FF4F80818F5F8C939F
:10586000FE01E957FF4F8081843008F4A8CFFE0184
:10587000EF57FF4F808191810E94A12E80E090E040
:10588000A0E7B1E48B879C87AD87BE876B857C855D
:105890008D859E8520E030E04AEF54E40E941F028F
:1058A000DC01CB018F839887A987BA876F817885C0
:1058B00089859A8520E030E040E85FE30E94250476
:1058C00088232CF481E090E09E838D833FC06F811C
:1058D000788589859A8520E03FEF4FE757E40E945D
:1058E000C50318164CF56B857C858D859E8520E05B
:1058F00030E040E251E40E941F02DC01CB01BC0118
:10590000CD010E944900DC01CB019E838D830FC035
:1059100088EC90E09C838B838B819C810197F1F7CD
:105920009C838B838D819E8101979E838D838D8146
:105930009E81009769F714C06F81788589859A8563
:105940000E944900DC01CB019E838D838D819E8165
:105950009A83898389819A810197F1F79A83898350
:105960000E94A41683EF90E00E945416FE01ED57AA
:10597000FF4F80E197E291838083FE01E158FF4F62
:1059800011821082FE01E957FF4F108251C00E9420
:105990001A07FE01EA57FF4F8083FE01EA57FF4FC7
:1059A00080818F3FA1F3FE01EA57FF4F8081882F4E
:1059B00090E0A0E0B0E0BC01CD010E947F168E0116
:1059C0000D571F4FFE01ED57FF4F808191812AE057
:1059D00030E0B9010E94DC30CB01F8019183808373
:1059E000FE01EA57FF4F8081282F30E0FE01ED577E
:1059F000FF4F80819181A901489F9001499F300DFF
:105A0000589F300D1124DE01A158BF4FFE01E1580F
:105A1000FF4F80819181820F931F8D939C93DE01B4
:105A2000A957BF4FFE01E957FF4F80818F5F8C93CD
:105A3000FE01E957FF4F8081843008F4A8CFFE01B2
:105A4000E158FF4F808191810E94182F0C9485228C
:105A5000DF93CF93CDB7DEB768970FB6F894DEBF6C
:105A60000FBECDBF988F8F8B1B8A1A8A88EE93E06A
:105A7000998B888B1F86A6C08F89988D03969E016F
:105A80002A5E3F4FB9010E94F7068E89282F30E029
:105A900088899989AC01249FC001259F900D349F6E
:105AA000900D11249D8B8C8B2A893B898C899D8933
:105AB000820F931F9B8B8A8B888999892AE030E01B
:105AC000B9010E94DC30CB01998B888B1D8A1C8A1E
:105AD00080E090E0A0E7B1E48B879C87AD87BE872C
